:100000000C9463000C948B000C948B000C948B006C
:100010000C948B000C948B000C948B000C948B0034
:100020000C948B000C948B000C948B000C94C904E2
:100030000C948B000C948B000C948B000C948B0014
:100040000C947F040C948B000C948B000C948B000C
:100050000C948B000C948B000C948B000C948B00F4
:100060000C948B000C948B000000000024002700EF
:100070002A0000000000250028002B0000000000DE
:1000800023002600290004040404040404040202DA
:100090000202020203030303030301020408102007
:1000A0004080010204081020010204081020000012
:1000B0000008000201000003040700000000000027
:1000C00000008F08490911241FBECFEFD8E0DEBF22
:1000D000CDBF11E0A0E0B1E0ECE1F8E102C0059095
:1000E0000D92A039B107D9F722E0A0E9B1E001C033
:1000F0001D92AB35B207E1F710E0C2E6D0E004C0D4
:100100002197FE010E94000AC136D107C9F70E945B
:1001100085050C94010C0C9400008F929F92AF9275
:10012000BF92FF920F931F93CF93DF93F0903C0207
:100130002BE02F1508F44CC020913E0208E512E098
:10014000021B110927FD1395000F111F000F111F2E
:1001500020913D02C8E8D0E0C21BD10927FDD3950C
:10016000CC0FDD1FCC0FDD1F4E010D2E000CAA0899
:10017000BB089801012E000C440B550B28193909B6
:100180004A095B09DC010E94840924EB30E040E06D
:1001900050E00E945A09820E931EA41EB51E8C16B2
:1001A0009D062CF0E801801691060CF4E4012297DC
:1001B000CC0FDD1F2FB7F8948F2D90E0FC01EE0FD0
:1001C000FF1FE80FF91FE85EFD4FD283C1832FBFE9
:1001D000DF91CF911F910F91FF90BF90AF909F90B3
:1001E0008F90089596E0899FD0011124A755BE4FA6
:1001F00090967C936E935F9791E091969C939197E4
:10020000E0911602F091170290911502992339F0AE
:10021000309751F0811108C08091C5010994309741
:1002200019F05C968C91FACF0895CF92DF92EF92FD
:10023000FF920F931F9396E0899FF0011124E755D9
:10024000FE4F11A2278D30A12130310551F178F0F8
:100250002230310509F451C02330310509F452C070
:100260001F910F91FF90EF90DF90CF90089566233C
:10027000B9F361E070E00E94F2002FB7F89480912A
:10028000A5019091A601A091A701B091A8012FBF4F
:100290008093010290930202A0930302B0930402A0
:1002A000DFCF9FB7F894C090A501D090A601E09051
:1002B000A701F090A8019FBF0091010210910202D6
:1002C0002091030230910402C01AD10AE20AF30A13
:1002D000009113021091140230E020E00C151D056E
:1002E0002E053F0550F462E070E01F910F91FF90E2
:1002F000EF90DF90CF900C94F2006111B1CF63E0EA
:1003000070E0F3CF70E060E0F0CF833081F028F44C
:10031000813099F08230A9F008958730A9F08830B3
:10032000C9F08430B1F4809180008F7D03C080914A
:1003300080008F7780938000089584B58F7784BD87
:10034000089584B58F7DFBCF8091B0008F77809327
:10035000B00008958091B0008F7DF9CFCF93DF93E7
:10036000282F30E0F901E255FF4F8491F901E6565C
:10037000FF4FD491F901EA57FF4FC491CC23A1F06C
:1003800081110E948501EC2FF0E0EE0FFF1FE45871
:10039000FF4FA591B491EC91ED2381E090E009F439
:1003A00080E0DF91CF91089580E090E0FACF1F9335
:1003B000CF93DF93282F30E0F901E255FF4F84916E
:1003C000F901E656FF4FD491F901EA57FF4FC49166
:1003D000CC23A9F0162F81110E948501EC2FF0E0AB
:1003E000EE0FFF1FEE58FF4FA591B4918FB7F89411
:1003F000EC91111108C0D095DE23DC938FBFDF9103
:10040000CF911F910895DE2BF8CFCF93DF9390E02B
:10041000FC01E656FF4F24918A579F4FFC018491BF
:100420008823C9F090E0880F991FFC01E859FF4F1D
:10043000A591B491FC01EE58FF4FC591D491611183
:100440000DC09FB7F8948C91209582238C9388815E
:10045000282328839FBFDF91CF910895623051F404
:100460009FB7F8943C91822F809583238C93E881E9
:100470002E2BEFCF8FB7F894EC912E2B2C938FBFB0
:10048000EACF3FB7F8948091A1019091A201A09189
:10049000A301B091A40126B5A89B05C02F3F19F078
:1004A0000196A11DB11D3FBFBA2FA92F982F8827F4
:1004B000BC01CD01620F711D811D911D42E0660FCF
:1004C000771F881F991F4A95D1F708958F929F92A1
:1004D000AF92BF92CF92DF92EF92FF924B015C01FD
:1004E0000E9441026B017C010E9441026C197D094E
:1004F0008E099F09683E734081059105A8F321E0AC
:10050000821A9108A108B10888EEC80E83E0D81EAF
:10051000E11CF11C81149104A104B10429F7FF909E
:10052000EF90DF90CF90BF90AF909F908F90089505
:10053000862F642F0C940502862F642F0C94D7010C
:10054000862F0C94AE01AF92BF92CF92DF92EF92C2
:10055000FF920F931F93CF93DF936C017B018B016D
:10056000040F151FEB015E01AE18BF08C017D107BD
:1005700059F06991D601ED91FC910190F081E02D47
:10058000C6010995892B79F7C501DF91CF911F919C
:100590000F91FF90EF90DF90CF90BF90AF900895B4
:1005A000089590E080E00895FC0101900020E9F7B3
:1005B0003197AF01481B590BBC018FE392E00C94BB
:1005C000A302CF93DF93EC0160E08E810E94D701FC
:1005D00061E08E810E94D70160E08E810E94D70188
:1005E0008BE891E00197F1F7DF91CF910895CF92D9
:1005F000DF92EF92FF920F931F93CF93DF936C01E3
:100600007C0187E0E80EF11CD0E0C0E0062F10E08E
:10061000B8010C2E02C0759567950A94E2F76170D7
:10062000F70181917F010E94D7012196C430D10545
:1006300079F7C601DF91CF911F910F91FF90EF9055
:10064000DF90CF900C94E102CF92DF92EF92FF9275
:100650000F931F93CF93DF93EC01F62E642F8C81C1
:100660000E94D7018D818F3F19F060E00E94D70171
:100670000F2D10E08F8584FF25C06E0187E0C80E26
:10068000D11CF12CE12CB8010E2C02C07595679598
:100690000A94E2F76170F60181916F010E94D7011F
:1006A000FFEFEF1AFF0A88E0E816F10461F7CE01C8
:1006B000DF91CF911F910F91FF90EF90DF90CF903E
:1006C0000C94E102B80184E0759567958A95E1F78D
:1006D000CE010E94F7026F2DCE01DF91CF911F91C5
:1006E0000F91FF90EF90DF90CF900C94F70240E0D5
:1006F000682F8FE392E00C94240381E00E9477033B
:100700008BE39FE10197F1F70895CF93DF93823058
:1007100029F490914E02986090934E028093520279
:100720001092530280E48093540280E1809355023A
:1007300080E58093560261E0809143020E940502A9
:10074000809144028F3F19F061E00E94050261E050
:10075000809145020E940502CFE3D2E09E012F5313
:10076000324080914E0284FD0BC084E090E02196DF
:100770002817390744F461E08E810E940502EECF0C
:1007800088E090E0F4CF8BE39DE00197F1F760E023
:10079000809143020E94D70160E0809145020E944F
:1007A000D701809144028F3F19F060E00E94D70189
:1007B00080914E0284FD34C063E08FE392E00E949A
:1007C000F702CBE4D6E4CE010197F1F763E08FE3C3
:1007D00092E00E94F7022197F1F763E08FE392E045
:1007E0000E94F70283E592E00197F1F762E08FE360
:1007F00092E00E94F70280914E0280620E9477038D
:1008000084E080934F028CE00E9477030E947D0376
:1008100082E08093500286E0DF91CF910C947703C1
:1008200080620E9477038BE496E40197F1F7809150
:100830004E0280620E94770383E592E00197F1F710
:1008400080914E0280620E947703D5CF41E00E94E2
:10085000240381E090E008950F931F93CF93DF93DB
:10086000EC0188819981009759F02A813B812617F4
:10087000370730F081E0DF91CF911F910F910895FC
:100880008B016F5F7F4F0E942B0B009759F099836C
:1008900088831B830A832C813D81232B59F7FC011C
:1008A0001082E8CF80E0E7CFEF92FF920F931F9383
:1008B000CF93DF93EC017B018A01BA010E942C04E3
:1008C00028813981811114C02115310519F0C90120
:1008D0000E94A20A198218821D821C821B821A821F
:1008E000CE01DF91CF911F910F91FF90EF9008956E
:1008F0001D830C83B701C9010E94FA0BF1CF1F922F
:100900000F920FB60F9211242F933F938F939F93C3
:10091000AF93BF938091A5019091A601A091A701EB
:10092000B091A8013091A00123E0230F2D3758F595
:100930000196A11DB11D2093A0018093A501909364
:10094000A601A093A701B093A8018091A101909165
:10095000A201A091A301B091A4010196A11DB11D16
:100960008093A1019093A201A093A301B093A4014D
:10097000BF91AF919F918F913F912F910F900FBE9B
:100980000F901F90189526E8230F0296A11DB11D08
:10099000D2CF1F920F920FB60F9211242F933F9335
:1009A0004F935F936F937F938F939F93AF93BF9377
:1009B000CF93DF93EF93FF9380919101C0919001CA
:1009C000D0E087FF24C010928500109284008091AF
:1009D00091018F5F8093910180919101082E000C0D
:1009E000990B8C179D0724F4809191018C30C4F1F0
:1009F0008091840090918500049680349C4908F48D
:100A00007AC08091840090918500049676C0809190
:100A10009101082E000C990B8C179D07C4F6E091EC
:100A200091018E2FEE0F990BFC01EE0FFF1FE80FC7
:100A3000F91FE85EFD4F808186FFC9CFE0919101EB
:100A40008E2FEE0F990BFC01EE0FFF1FE80FF91F21
:100A5000E85EFD4F808160E08F730E94D701B7CFC1
:100A60002091840030918500E09191018E2FEE0F4E
:100A7000990BFC01EE0FFF1FE80FF91FE85EFD4F19
:100A800081819281820F931F9093890080938800C7
:100A9000E09191018E2FEE0F990BFC01EE0FFF1FDD
:100AA000E80FF91FE85EFD4F808186FF11C0E091DD
:100AB00091018E2FEE0F990BFC01EE0FFF1FE80F37
:100AC000F91FE85EFD4F808161E08F730E94D701BE
:100AD000FF91EF91DF91CF91BF91AF919F918F9156
:100AE0007F916F915F914F913F912F910F900FBE2A
:100AF0000F901F90189580E49CE990938900809353
:100B000088008FEF80939101E3CFCF93DF9300D0E4
:100B1000CDB7DEB7789484B5826084BD84B581603A
:100B200084BD85B5826085BD85B5816085BD8091B8
:100B30006E00816080936E00109281008091810030
:100B40008260809381008091810081608093810028
:100B5000809180008160809380008091B1008460EA
:100B60008093B1008091B00081608093B00080914B
:100B70007A00846080937A0080917A00826080930A
:100B80007A0080917A00816080937A0080917A0067
:100B9000806880937A001092C10082E00E948503F1
:100BA00084E391E00E94D40280913C028C3008F0F2
:100BB00051C061E08AE00E94050280913C02282F2A
:100BC00030E0F901EE0FFF1FE20FF31FE85EFD4F6B
:100BD0009081907C9A60908310923D0210923E0228
:100BE0002CE0622F0E94F409829FB001112430E0B2
:100BF00020E0AB01420F531FFA01EE0FFF1FE40F7D
:100C0000F51FE85EFD4F908196FD16C02F5F3F4FA8
:100C10002C30310571F781110FC01092800082E0F5
:100C2000809381001092850010928400B19A809187
:100C30006F00826080936F00E0913C028E2F90E005
:100C4000FC01EE0FFF1FE80FF91FE85EFD4F8081EA
:100C50008064808390E080E00E948D0061E08DE000
:100C60000E94050261E08CE00E94050261E08BE0D9
:100C70000E94050260ED77E080E090E00E9466024D
:100C80000E947D0384E491E00E94D402412C512C07
:100C90003201439440E0A42E40E0B42E51E0509342
:100CA00015028FB7F8944091A5015091A60160916B
:100CB000A7017091A8018FBF809105029091060253
:100CC000A0910702B0910802481B590B6A0B7B0BDD
:100CD0008091110290911202B0E0A0E08417950774
:100CE000A607B70708F01BC110E080910F02181784
:100CF00060F4E0910B02F0910C02E10FF11D62E053
:100D000080810E9405021F5FF0CF312C809110027C
:100D1000381608F061C0E32CF12CE0910D02F0913F
:100D20000E02EE0DFF1D61E080810E940502E09140
:100D30000D02F0910E02EE0DFF1D60E080810E9419
:100D4000D701D301C201032C04C0880F991FAA1F29
:100D5000BB1F0A94D2F74C016C01C094D094212C93
:100D600080910F02281608F5022D10E0E0910B0289
:100D7000F0910C02E00FF11F80810E94AE010C5F28
:100D80001F4F000F111FF801E755FE4F892B41F44B
:100D90008081918188299929918380832394E0CF50
:100DA000808191818C219D21F7CFE0910D02F091FE
:100DB0000E02EE0DFF1D61E080810E94D70180913F
:100DC0000D0290910E02E80EF91E60E0F70180819D
:100DD0000E94050233949ACF09EA11E07801F701E5
:100DE000878D90A1892B31F4148E8FEF9FEF968F12
:100DF000858F11A296E0E90EF11CE5EEEE16E1E01A
:100E0000FE0669F7912C80910F02981608F053C0E6
:100E1000812CC92CD12CCC0CDD1CC6018F549E4FCB
:100E20006C0120911002821608F043C0F601608127
:100E30007181082C02C0769567950A94E2F7929E1C
:100E400090011124280D311DE9EAF1E080E0458D83
:100E5000568D2417350709F4FEC08F5F36968A3009
:100E6000B1F760FF24C0E9EAF1E090E080E0448D52
:100E7000411118C0E0910902F0910A02E20FF31F3C
:100E8000408156E0589FF001599FF00D1124E7551D
:100E9000FE4F448F368F258F10A2178E61E00E947F
:100EA000150105C0019636968A30910501F78394A5
:100EB000B8CF9394A8CF80E0F80191A19111892F28
:100EC0000A5F1F4FE016F106B9F79FB7F8944091FB
:100ED000A5015091A6016091A7017091A8019FBF43
:100EE0004093050250930602609307027093080234
:100EF0008823A9F08091CA01882389F08091C801D4
:100F00009091C901019759F41091C50111110AC0BE
:100F1000A114B10409F4C2CE0E940000BFCE109209
:100F20001502F6CF1332D9F450E040E069E871E0E1
:100F30008AE991E00E9454040E947D0384E591E0D7
:100F40000E94D40268EE73E080E090E00E946602A6
:100F50000E947D0384E491E00E94D402D9CFE09105
:100F60005202E23008F04CC0E150F0E0E15CFD4F8D
:100F7000848980680E94770319831A8200919E01F8
:100F800010919F010F5F1F4FB8018AE991E00E9405
:100F90002C04882399F020919A0130919B01809133
:100FA0009E0190919F01BE016F5F7F4F820F931F43
:100FB0000E94FA0B10939F0100939E018CE591E033
:100FC0000E94D40280919E0190919F01049709F0A4
:100FD0009FCF80919801909199010497B1F48091ED
:100FE0009A0190919B0160919401709195010097F5
:100FF000A1F16115710531F4FC01808190E036C0EA
:10100000E1E0B3CF0E94F10B31C00E947D038DE679
:1010100091E00E94D40261E08BE00E94D70161E080
:101020008DE00E94D70160ED77E080E090E00E94C3
:10103000660260E08DE00E94D70160E08BE00E94D4
:10104000D701809192019091930101969093930121
:101050008093920131C0617022CF6115710541F01A
:10106000FB01808190E0919581959109892B69F62A
:101070000E947D038EE591E00E94D40261E08CE045
:101080000E94D70160E08BE00E94D7018AE590E0E2
:101090000E948D0068EB7BE080E090E00E94660299
:1010A00090E080E00E948D0060E08CE00E94D7011B
:1010B000109293011092920180919201909193016C
:1010C0000397C4F00E947D038BE791E00E94D40255
:1010D00061E08DE00E94D70168E873E180E090E074
:1010E0000E94660260E08DE00E94D7011092930199
:1010F0001092920160ED77E080E090E00E9466023D
:101100000E947D0384E491E00E94D40250E040E01C
:1011100069E871E08AE991E00E945404F9CECF9326
:1011200010924202109241028CE291E090934002B0
:1011300080933F0282E180934302CFEFC093440249
:1011400083E1809345028EE0809346028FE0809396
:10115000470280E18093480281E180934902109226
:101160004A0210924B0210924C0210924D021092C1
:101170004E0281E00E948503809190018C3008F03E
:1011800085C091E0980F9093900180933C0290E08D
:10119000FC01EE0FFF1FE80FF91FE85EFD4F88EB23
:1011A0009BE0928381831092AB011092AF01109269
:1011B000AE011092B00182E291E09093AA01809377
:1011C000A901E5ECF1E010821482138215823696B3
:1011D00082E0E130F807B9F784E091E090930C02E7
:1011E00080930B0280E091E090930E0280930D02B9
:1011F00084E080930F028093100288E091E0909346
:101200000A02809309028AE090E090931202809390
:10121000110284EF91E090931402809313021092D4
:1012200017021092160210920502109206021092F6
:101230000702109208021092150210929501109266
:1012400094011092970110929601109299011092B8
:10125000980144E050E06AE871E084E991E00E947E
:10126000540410929B0110929A0110929D011092C9
:101270009C0110929F0110929E0150E040E069E8AD
:1012800071E08AE991E0CF910C945404C0933C0240
:101290008ACF80919A0190919B01009711F00E9452
:1012A000A20A8091940190919501009711F00C94FD
:1012B000A20A0895052E97FB1EF400940E9471095E
:1012C00057FD07D00E94C30907FC03D04EF40C94CD
:1012D000710950954095309521953F4F4F4F5F4F85
:1012E000089590958095709561957F4F8F4F9F4F92
:1012F00008950E94E509A59F900DB49F900DA49FAD
:10130000800D911D11240895B7FF0C9479090E9456
:101310007909821B930B08952F923F924F925F920F
:101320006F927F928F929F92AF92BF92CF92DF92F5
:10133000EF92FF920F931F93CF93DF93CDB7DEB75A
:10134000CA1BDB0B0FB6F894DEBF0FBECDBF0994EE
:101350002A88398848885F846E847D848C849B8445
:10136000AA84B984C884DF80EE80FD800C811B8153
:10137000AA81B981CE0FD11D0FB6F894DEBF0FBE82
:10138000CDBFED010895A1E21A2EAA1BBB1BFD01E2
:101390000DC0AA1FBB1FEE1FFF1FA217B307E40754
:1013A000F50720F0A21BB30BE40BF50B661F771FAC
:1013B000881F991F1A9469F760957095809590958C
:1013C0009B01AC01BD01CF010895A29FB001B39F65
:1013D000C001A39F700D811D1124911DB29F700D3E
:1013E000811D1124911D0895991B79E004C0991F56
:1013F000961708F0961B881F7A95C9F7809508956F
:10140000EE0FFF1F0590F491E02D09940F931F93A9
:10141000CF93DF938230910510F482E090E0E09169
:101420005902F0915A0230E020E0B0E0A0E030979D
:1014300099F42115310509F44AC0281B390B2430D1
:101440003105D8F58A819B816115710589F1FB0110
:1014500093838283FE0111C04081518102811381F7
:1014600048175907E0F04817590799F4109761F0A9
:1014700012960C93129713961C933296CF01DF911C
:10148000CF911F910F9108950093590210935A0222
:10149000F4CF2115310551F04217530738F0A90157
:1014A000DB019A01BD01DF01F801C1CFEF01F9CFE6
:1014B00090935A0280935902CDCFFE01E20FF31FA1
:1014C000819391932250310939832883D7CF20917A
:1014D000570230915802232B41F420911A01309188
:1014E0001B0130935802209357022091180130912C
:1014F00019012115310541F42DB73EB740911C016A
:1015000050911D01241B350BE0915702F0915802B8
:10151000E217F307A0F42E1B3F0B2817390778F0CA
:10152000AC014E5F5F4F2417350748F04E0F5F1F29
:101530005093580240935702819391939FCFF0E0CC
:10154000E0E09CCFCF93DF930097E9F0FC01329766
:1015500013821282A0915902B0915A02ED0130E03B
:1015600020E01097A1F420813181820F931F2091F8
:101570005702309158022817390709F061C0F093DB
:101580005802E0935702DF91CF910895EA01CE17F8
:10159000DF07E8F54A815B819E0141155105B1F7EE
:1015A000E901FB83EA8349915991C40FD51FEC17D8
:1015B000FD0761F4808191810296840F951FE901F6
:1015C00099838883828193819B838A83F0E0E0E022
:1015D00012968D919C9113970097B9F52D913C919E
:1015E0001197CD010296820F931F209157023091DF
:1015F00058022817390739F6309751F510925A02D8
:1016000010925902B0935802A0935702BCCFD383D3
:10161000C28340815181840F951FC817D90761F497
:101620004E5F5F4F88819981480F591F51834083D6
:101630008A819B81938382832115310509F0B0CF84
:10164000F0935A02E09359029ECFFD01DC01C0CF16
:1016500013821282D7CFB0E0A0E0E1E3FBE00C946C
:101660008E098C01009751F4CB010E94060A8C016F
:10167000C801CDB7DEB7E0E10C94AA09FC01E60F82
:10168000F71F9C0122503109E217F30708F49DC0AF
:10169000D901CD91DC911197C617D70798F0C530C5
:1016A000D10530F3CE0104978617970708F3C61BC0
:1016B000D70B2297C193D1936D937C93CF010E9456
:1016C000A20AD6CF5B01AC1ABD0A4C018C0E9D1E3E
:1016D000A0915902B0915A02512C412CF12CE12CCD
:1016E000109731F58091570290915802881599050D
:1016F00009F05CC04616570608F058C080911801E2
:1017000090911901009741F48DB79EB740911C014B
:1017100050911D01841B950BE817F90708F055C07F
:10172000F0935802E0935702F90171836083A0CFD0
:101730008D919C91119712966C90129713967C90B4
:101740001397A815B90559F56C0142E0C40ED11CD8
:10175000CA14DB0420F1AC014A195B09DA011296C4
:10176000159780F06282738251834083D9016D9313
:101770007C93E114F10471F0D7011396FC93EE937E
:10178000129776CF22968C0F9D1FF901918380834B
:10179000F301EFCFF0935A02E093590269CF481654
:1017A000590608F42C017D01D3019ACFCB010E9488
:1017B000060A7C01009749F0AE01B8010E94E80BCF
:1017C000C8010E94A20A870153CF10E000E050CF69
:1017D000FB01DC0102C001900D9241505040D8F74E
:1017E0000895FB01DC018D91019080190110D9F35E
:1017F000990B0895FB01DC0101900D920020E1F7A7
:10180000089510E0C2E6D0E004C0FE010E94000A84
:0C1810002196C336D107C9F7F894FFCF2A
:10181C0005040302090807063738394134353642C6
:10182C00313233432A30234400005B028000000035
:10183C00000098029C02A002000000002604A302F3
:10184C00D102D002536D61727420446F6F72204CC0
:10185C006F636B00456E7465722050617373776FA4
:10186C0072643A00436C6561726564002A004163DE
:10187C0063657373204772616E74656400416363C2
:10188C006573732044656E69656400537973746580
:10189C006D204C6F636B6564210031323334000072
:00000001FF
